:02000002B0004C
:1040000000400B00F4A10B00000006000C000502AC
:084010000401E50C00000000B2
:04401800C88B0B0046
:10401C0009480A49884208B505D0094A824202D0AB
:10402C00121A04F067FC0748074A0021121A04F020
:10403C006FFC014808BD00BFE4E4032058A10B004D
:10404C0058E5032058E50320EDE7032070B5074E33
:10405C00074C04F0C7F9A41BA4080025AC4200D1FE
:10406C0070BD56F8043B98470135F7E708A10B00E3
:10407C002CA10B0000F080BD08B500F069FFBDE875
:10408C00084004F067B903F06BB803F069B803F0AB
:10409C006FB803F06DB8000008B5034A03490C2053
:1040AC0002F0AAFFFEE700BF856C0B00DC8B0B0057
:1040BC000078B0FA80F04009704701230370704714
:1040CC0070B50C1E064615460BDA0A2A09D12D21AD
:1040DC0003F094FA6142EAB23046BDE8704003F056
:1040EC00A6BA2146F7E70000F0B502F1080385B047
:1040FC0023F0070300AFADEB030D144606466846EC
:10410C0004F0F8FB002368460DF8043004F0EAFBD9
:10411C00054604F04DF80A2204462946FFF7D0FF65
:10412C00204603F06EFA3146384603F0FCFB0D498D
:10413C00384603F06EFC044620B10B4B1C6801346E
:10414C0018BF0124384603F0A3FB44B1064B186892
:10415C00064BA842D5BF0022401B1A6018601437CA
:10416C00BD46F0BDF18B0B00E4E40320E8E4032032
:10417C0008B502F089FD034B1860BDE8084002F059
:10418C0077BF00BF28E7032003682BB14268934236
:10419C0002D2184604F0A6BB0020704738B505685B
:1041AC00044645B143689D4205D2284604F0F8FB0D
:1041BC00013005442560204638BDF8B504464768F3
:1041CC000D4621B903687A1C4260D955F8BD0846E2
:1041DC0004F0E6FBA368461CF2199A42F6D8206854
:1041EC0032462946384404F085FB606830446060F0
:1041FC00ECE7000038B504460B46D0E90101256810
:10420C00044A091A284402F0C3FF636801300344CE
:10421C00636038BD0B8C0B0038B504460B46D0E9F7
:10422C0001012568044A091A284402F0B1FF6368A9
:10423C0001300344636038BD0E8C0B0008B5086870
:10424C0004F050FB044B186003F0B2FFBDE80840CB
:10425C00024903F0E2B900BFB4E60320128C0B0054
:10426C0008B5086804F03EFB012804D1054A002378
:10427C001360054A136003F09BFFBDE80840034937
:10428C0003F0CBB9B0E60320B4E50320198C0B0086
:10429C0008B5086804F026FB054B003818BF012050
:1042AC00187003F085FFBDE80840024903F0B5B96A
:1042BC0089E603201F8C0B0038B50C4D08680C46A2
:1042CC0004F010FB2B68834208D0206804F00AFB32
:1042DC00074A28600749084802F021FA03F068FFF2
:1042EC00BDE83840054903F098B900BFE4E4032069
:1042FC00308C0B00338C0B00B8E503204C8C0B007E
:10430C001FB5104802F090F828B10E4805B05DF8C2
:10431C0004EB02F060BA684602F0B2FE009909485C
:10432C0002F072F9684603F0B3FA0749054802F047
:10433C009AFB064A0649034805B05DF804EB02F007
:10434C00EEB900BFB8E50320F18B0B00308C0B00ED
:10435C00338C0B00F8B5544B1978002900F08A8087
:10436C00524C534B534D1A684EF6602393FBF2F3A9
:10437C00236002F089FC22682B684F4C1344834263
:10438C001AD802F081FC01212860062004F0ABF859
:10439C0002F07AFC494B18600123237002F074FC84
:1043AC00464B1B683233834209D80021062004F0A7
:1043BC009AF80023237002E02378002BEED14048BA
:1043CC003F4D404C02F00AFC002857D0236803F5FF
:1043DC006A43603323603C4B32221A603B4F3C4EA5
:1043EC003B68336002F050FC33683860C01A394BBC
:1043FC0018602368181A002820600CDC324E3368D1
:10440C00012B06DD0121062004F06DF83368013B19
:10441C0033600023236000232B6129482E4D01F0CB
:10442C0081FB23682D4C26484FF47A7293FBF2F3F0
:10443C002B4A3C21136093FBF1F201FB1233294907
:10444C0023602A6003F0E9F829681D480A22FFF767
:10445C0037FE25491A4803F0CDF8216818480A227E
:10446C00FFF72EFE164803F0CCF8BDE8F8401448D0
:10447C0001F0C6BD062004F036F8A0E7284602F08D
:10448C00B7FB28B1236803F5922303F57873A1E7F2
:10449C00284602F0B7FB0028A0D0236803F51223AE
:1044AC0003F5F86396E700BF89E60320A8E603202E
:1044BC00B4E603208CE6032088E60320ACE6032058
:1044CC0018E60320B0E60320B4E5032094E60320AD
:1044DC0090E6032098E60320A4E60320A0E6032040
:1044EC009CE60320568C0B005B8C0B0008B500235C
:1044FC004377006803F044FDBDE8084002F0CEBAF3
:10450C002DE9F0438F188FB0B942CDE90517064657
:10451C008946904680F0C28005A80D88FFF73EFEC4
:10452C000368BB4280F0BA8005980378412B49D1CF
:10453C00013004F0D7F9052837DDFF2447F2762344
:10454C009D4200F0D38041D847F261239D4200F098
:10455C00A88047F264239D426BD046F670539D426F
:10456C0041D1784D784EDFF8F4810598B84280F04F
:10457C0095800378412B4BD1013004F0B3F9052819
:10458C0039DDFF2405A8FFF709FEDDF81490294654
:10459C00484604F0F3F9014600283DD1204603F0CB
:1045AC0091FF05A8FFF7FAFDDFE70598013004F04D
:1045BC0099F90028C1DB0598013004F093F90E300D
:1045CC00C4B2BBE705A8FFF7DFFDF9E747F2647358
:1045DC009D424FD047F276739D4200F0978047F290
:1045EC0061739D426FD00023CDE90133022200920A
:1045FC00728B19463AE00598013004F073F90028E3
:10460C00BFDB0598013004F06DF90E30C4B2B9E788
:10461C0005A8FFF7B9FDF9E73146484604F0AEF9B5
:10462C0028B14146484604F0A9F90028B9D1012126
:10463C00B4E70AAB4549079307A810230025CDE939
:10464C000853FFF7BAFD07A82146FFF7D3FD204614
:10465C0003F062FF014607A8FFF7DEFD089BCDE9DA
:10466C000155013B0093079B2A461421304600F06C
:10467C00FBFA13E005A8FFF791FD03689F420DD9E3
:10468C00A4B20121204603F01DFF05A8FFF77CFD15
:10469C00011E18BF0121204603F025FF0FB0BDE815
:1046AC00F0830AAB079307A8102329490025CDE90D
:1046BC000853FFF782FD07A82146FFF79BFD204614
:1046CC0003F03DFFC6E705A8FFF768FD03689F42AE
:1046DC00E4D9A4B20121204603F0F4FE05A8FFF7AB
:1046EC0053FD0146204603F041FFD7E720468DF8E5
:1046FC00284002F0D5F903460AA823B1154A934283
:10470C0001D09847CAE702F0C7F9C7E705A8FFF739
:10471C0045FD059B8DF81C40A3EB0901A8EB01019D
:10472C002046CDE90A310C9102F0C4F903460AA9DE
:10473C0007A823B1084A934201D09847AEE702F08C
:10474C00ACF9ABE7498C0B00078C0B00618C0B00B0
:10475C00648C0B00A56A0B00A76A0B005D8C0B0028
:10476C002DE9F0418CB004AF044605220068391DD8
:10477C0003F079F898B3052804D000202037BD4603
:10478C00BDE8F081B7F805305BBA9AB2A7F80530EE
:10479C00B7F807305BBA1FFA83F8A7F80730002A7E
:1047AC00EBD03B7923BB02F075F90246E060607FE9
:1047BC00B7F80730C0B9B7F80510012914D1092B87
:1047CC000FD0C82B01D0042BD8D101256261204613
:1047DC00657700F0F7FAFFF7CBFC00F029FB01201E
:1047EC00CCE703236377C9E7581F18BF0120C5E73F
:1047FC00B8F5806F03D92046FFF778FEEFE708F194
:10480C0008036E46DB08A6EBC3039D4604AD206887
:10481C004246294603F027F880454FF000007FD12F
:10482C00B7F80730E85402F035F93B79E060142B07
:10483C0000F0A68048D80F2B00F0A28007D8022BDE
:10484C0048D0062B51D02046FFF750FE58E0112BD4
:10485C00F9D100233B70B7F807302B449D42C7E9D0
:10486C0003534DD207F10C00D5F80080FFF796FCEE
:10487C00FB68B7F807105D1B4D1BC7E905357B6856
:10488C00FD61C3F30F236383644B984500F0BF8035
:10489C0000F28C80A3F57F236FF4007213449845CB
:1048AC0000F09D8079D8A3F50033063B984500F0C5
:1048BC009C8003F50033033398456BD107F1140149
:1048CC00384602F0EAF865E0292B1BD0372B17D0BD
:1048DC001D2BB8D1637F43B901236377204600F0C9
:1048EC0071FAFFF745FC00F0A3FA0023C821B7F8D2
:1048FC0005200091CDE901331946204600F0B4F9AA
:10490C0001200DE0A3681BB9402002F029FCA06037
:10491C00B7F80780A8444545C7E9055802D30020DD
:10492C00B5462BE729464022A06804F041F8A3685D
:10493C00002583F83F5007F11400FFF72FFC0368A4
:10494C0098451BD9786920B1BB69984214D203F001
:10495C00CDFF85B2206803F013FB2368A2685A636D
:10496C001D870023637702F095F8A0F59C5008385A
:10497C00C4E903006061C3E72846EAE75025E9E78C
:10498C007B68B7F80720C3F30F23638329462046BF
:10499C00FFF7B6FD00236383B2E7214B9845F9D1AD
:1049AC0007F11401384602F078F8F3E71D4B9845EF
:1049BC0021D003F19F6303F5003303F58073984511
:1049CC001FD003F16E4303F5302303F5867398452E
:1049DC00E0D107F11401384602F05FF8DAE707F18D
:1049EC001401384602F059F8D4E707F1140138469F
:1049FC0002F053F8CEE707F11401384602F04DF8F7
:104A0C00C8E707F11401384602F047F8C2E707F18E
:104A1C001401384602F041F8BCE700BF766673001B
:104A2C006462670061636F6E2DE9F04104468CB0DF
:104A3C000D46FFF79DFB637F022B1ED0237F628BFD
:104A4C000133DBB22377AAB9022B13D8206803F009
:104A5C005FF9A8B125B9206803F038FA00280FDDFA
:104A6C002046FFF77DFE0028F5D1206803F088FA78
:104A7C0002F014F8237F013B23770CB0BDE8F081E2
:104A8C0002F008F80546206803F042F9677F012F11
:104A9C00064624D120B965612046FFF727FDE9E7DA
:104AAC00E3684FF21862EB1A9342F5D84AF6C872D3
:104ABC00934203D82369EB1A9342DBD9636941F221
:104ACC007072EB1A9342D5D90023CDE901330093D0
:104ADC001A460621204600F0C7F86561CAE7002F88
:104AEC00C8D16369EB1A40B141F270729342C1D9DB
:104AFC00206803F045FA6777BCE741F288329342AD
:104B0C00B8D9206803F03CFAD4F800C0DCF834E0E3
:104B1C00BCF83880BEF1000F1BD0334642467146BC
:104B2C00604603F077F80128D7D163680593012517
:104B3C001846258303F034FF0022CDE90122059BA2
:104B4C0000902A461D21204600F08EF823696361EF
:104B5C0090E7084B06930CF120070FCF07AE0FC65A
:104B6C003B6833704246734606A9604603F032F93F
:104B7C00D9E700BF149D0B002DE9F04194B0A2239E
:104B8C00AC22A721009302A8EA2302F047FC03AC55
:104B9C0040F6B83001F07CFF0FCC09AF0FC72F4D9A
:104BAC0023683B702E4B6B6001F074FFA0F59C509A
:104BBC0008380DF1240CC5E903006861BCE80F004E
:104BCC000FAE0FC62C683B6833700FAF41F6907375
:104BDC0023870FCF4FF00008C4F8348020340FC463
:104BEC003368237044F24F66286803F0C9F985F8DE
:104BFC001D8001F04FFF04466B7F012B0CD001F0A0
:104C0C0049FF001BB04204D800212846FFF70CFFD7
:104C1C00F2E76B7F012BE7D10121062003F052FC58
:104C2C000021062003F05FFC03F0C2FA4FF416518A
:104C3C0003F0B2FA0B4801F08FFF0A4800F072FF44
:104C4C000848012100F0B5FD06484FF001134361FF
:104C5C0014B0BDE8F04101F0D3B900BF58E5032012
:104C6C00678C0B0018E603202DE9F04F83B000AFE2
:104C7C00044600683D6B884616469946EB4603F0A1
:104C8C0047F800287FD0B8F11D0F04D84C4B23FAFD
:104C9C0008F3DB0702D4637F012B74D146B9668B12
:104CAC0036B9238B01339BB2002B71D02383268B17
:104CBC00A8F10C03082B16D8D4E90323934238BF70
:104CCC00134603F1420A01F0E5FEAAEB00000028AE
:104CDC0060DB00212046FFF7A7FE01F0DBFEAAEB0C
:104CEC0000000028F5DAB9F1000F5AD06B1D7A6B71
:104CFC00002ABA6B08BF002203EB020A0AF1070371
:104D0C0023F00703ADEB030DBB6BC7F804D0EA1817
:104D1C00C2F3072376BA43EA02238DF80080ADF87C
:104D2C000160ADF80330B9F1000F3CD0002D3AD042
:104D3C002A4649460DF1050003F0DCFD681D7B6B2E
:104D4C003BB1BB6B2BB11A467B68796B184403F0F3
:104D5C00D1FD002555452AD2AAEB05027B682068B7
:104D6C00B2F5806F28BF4FF48062591902F083FEB0
:104D7C000646002001F08CFEBEB9206803F000F955
:104D8C00667701F08BFE0C37DD46BD46BDE8F08F33
:104D9C0001238BE7217F0029A5D12046FFF744FE94
:104DAC00A1E70523A3E70520C9E73544D2E703D0E3
:104DBC002046FFF79BFBE6E701F06CFE2061E2E783
:104DCC004500002000B595B004AB002201934F23A1
:104DDC0000930292034B1121FFF746FF15B05DF8CB
:104DEC0004FB00BF098D0B0070B5ADF5846D08ABED
:104DFC00002405460E46059305A84FF480630B4925
:104E0C00CDE90643FFF7D9F9314605A8FFF7F2F9CA
:104E1C00069B013B0093CDE90144059B22461021E2
:104E2C002846FFF721FF0DF5846D70BD888C0B00B3
:104E3C0008B506480021FFF7D7FF04480121FFF70A
:104E4C00D3FF02480321FFF7CFFF08BD58E503202D
:104E5C0030B5ADF2244D08AB00240546059305A8EA
:104E6C004FF48063CDE90643FFF7A7F9069B013B9E
:104E7C000093CDE90144059B22460E212846FFF7FD
:104E8C00F3FE0DF2244D30BD30B5ADF2244D08AB20
:104E9C0000240546059305A84FF480630968CDE905
:104EAC000643FFF78AF9069B013B0093CDE90144C9
:104EBC00059B22460E212846FFF7D6FE0DF2244D07
:104ECC0030BD000030B51D4C236891B043B91C496E
:104EDC001C48FFF7BDFF4FF0FF33236011B030BD0E
:104EEC000133FBD0184904A802F01DFD04A9684643
:104EFC0002F03CFD0A22216808A802F054FD08A922
:104F0C00684602F07AFD114905460CA802F00BFD2B
:104F1C000CA9284602F071FD01460A48FFF7B4FFC0
:104F2C000CA802F0B5FC08A802F0B2FC684602F02E
:104F3C00AFFC04A802F0ACFCCDE700BFE8E4032012
:104F4C008B8C0B0058E50320C08C0B00D18C0B0014
:104F5C0008B500210648FFF767FD064801F025FE5D
:104F6C00FFF7CEF9FFF7AEFFBDE80840FFF7F2B947
:104F7C0058E5032018E6032037B5174D0021012012
:104F8C0002F05AF8284603F045F805F11C0002F02F
:104F9C0001FA124B12480024C3E90054C3E902443D
:104FAC00C3E904449C619C8307216C632C8701F04A
:104FBC00A5FD01F069FE0B4B186001F065FE0A4B74
:104FCC000A49186040F25B72094B0094094801F0E1
:104FDC004FF903B030BD00BF78E5032058E503203E
:104FEC0018E603208CE60320ACE60320F28C0B00C1
:104FFC00F5400B00B8E503202DE9F04F85B01F46B6
:10500C00BDF93880BDF83C30A8EB0209A7EB010ACA
:10501C00B9F1000FB8BFC9F10009BAF1000FB8BF60
:10502C00CAF1000AD14583460C46154604DD3A46C2
:10503C002C4647460D469046BC4205DD2A46454661
:10504C00904622463C4617463E1BB2B20092A8EB55
:10505C00050282EAE271A1EBE271C6F3C03202FAF8
:10506C0086F64545B4BF01224FF0FF320191761010
:10507C000292BC421CDCDBF800200393D145D2F831
:10508C001880C7BF294622462A4621465846C047A3
:10509C00019A039BB61AB1B236B2002E05DA029A07
:1050AC001544009A56182DB236B2013424B2E0E7FA
:1050BC0005B0BDE8F08F704710B404682469A446AD
:1050CC005DF8044B604730B40468BDF80850029595
:1050DC00A46BA44630BC604730B40468BDF80850DB
:1050EC000295E46BA44630BC604770B4BDF90C501B
:1050FC00BDF810600468CDE90356246CA44670BC5E
:10510C0060472DE9F3411C460368BDF820805B69BC
:10511C0005461646013C34440F4624B298472B688A
:10512C00CDF8048000949C6A28463B4632463946AA
:10513C00A0472B68DB6A284602B0BDE8F04118474F
:10514C002DE9F3411D460368BDF820805B690446D8
:10515C0017460E469847CDE9007822686B1E3344FB
:10516C00956A20461BB23A463146A8472368DB6A4B
:10517C00204602B0BDE8F04118472DE9F3471E4622
:10518C000368BDF928905B69BDF82C800C46054678
:10519C00174698472644B4422B680BDACDF80080AA
:1051AC00D3F820A021464B463A4628460134D04736
:1051BC0024B2F0E7DB6A284602B0BDE8F047184796
:1051CC0013B502680191B0F90E100091146CB0F98E
:1051DC000C3000221146A04702B010BD2DE9F74358
:1051EC0099421646BDF92870BDF82C90026880468D
:1051FC000D461C4613D1BE42C8BF3346CDF828908D
:10520C00C4BF3E461F467B1C946B9B1B1BB2324695
:10521C0029464046A44603B0BDE8F0436047BE4271
:10522C000AD19942C2BF0B4625461C46631CCDF8D9
:10523C002890D46B5B1BE9E753699847CDE900795B
:10524C00D8F8003040469F6A324623462946B84774
:10525C00D8F80030DB6A404603B0BDE8F04318478D
:10526C002DE9F3471D460368BDF82C805B69BDF939
:10527C00289004460F46164698472368CDF80080C0
:10528C00D3F824A032462B4639462046D047236813
:10529C00CDF8008009F1FF323244D3F824A039460E
:1052AC002B46204612B2D0472368CDF80080D3F8A5
:1052BC0020A032464B4639462046D0476B1ED919A2
:1052CC002368CDF800801D6A20464B46324609B251
:1052DC00A8472368DB6A204602B0BDE8F0471847B0
:1052EC00704701F00303B0F90A208376C907B0F9BF
:1052FC00083059BF8381C2818281C381704700000D
:10530C0030B54281C281074A074D01810024818159
:10531C004FF0FF31C0E90512446005600461047769
:10532C00046230BD0101000164920B002DE9F04FC5
:10533C0089B0CDE902120268BDF948800493BDF929
:10534C004C3052690593BDF850A00446904718F1B3
:10535C0007024FF0000648BF08F10E024FEAE20BBD
:10536C0001963546039B019ABDF904109A18059BCA
:10537C008B4212B227DD049B33444FF00009069395
:10538C000FFA89F080451FFA89F117DD4F0705BF29
:10539C00069BC0106D001D5C18BFEDB22B060AD524
:1053AC00029B206807921944836909B21F46204664
:1053BC005346B847079A09F10109E1E7019B01330C
:1053CC0001935E44CEE72368DB6A204609B0BDE852
:1053DC00F04F18472DE9F04F2DED028B91B016468A
:1053EC00026ABDF874809DF878509DF87C4003915A
:1053FC001F46BDF8703004938346002A40F0C580E8
:10540C00B0F90C308B4240F34C81B0F90E30B34202
:10541C0040F34781062313FB0513002B40F3418116
:10542C0006EBC403002B40F33C81037F1BB9AF2F69
:10543C0084BF0137FFB2DBF8003058465B699847F0
:10544C000522099200220592984A07EB8703D3188C
:10545C000C93B3B20693059A0C9B9B5C0793ABB26F
:10546C000B93BDF80C300893039B02FB05F919FA5A
:10547C0083F90FFA89F308EE103A08230A93039B79
:10548C0002EB030A4FF000090FFA8AFA079ADBF8CD
:10549C000030D20752D5012D1FFA89F23ED1012CD2
:1054AC003CD19B6906991F46049B0A4412B2514693
:1054BC005846B84709F101034FFA83F9079B5B087B
:1054CC0007930A9B013B13F0FF030A93DED1059F60
:1054DC0001377BB20593099B013B13F0FF03099342
:1054EC00B9D1049B43450FD0012DDBF800303BD1E3
:1054FC00012C39D10899CDF8008005311C6A32464F
:10550C00082309B25846A047DBF80030DB6A58463E
:10551C0011B0BDEC028BBDE8F04F1847069914FB97
:10552C0002F20A44049901910094DB6918EE101AF6
:10553C001F4612B22B465846B847BBE7049A424561
:10554C00B8D0012D1FFA89F207D1012C05D19B6926
:10555C0006991F460A444346A8E70699CDF80480ED
:10556C0014FB02F20A44DFE70B9ACDF8048002EB3D
:10557C008201089AE4000A4411460094DC69324620
:10558C002B4609B25846A047BEE7137A51681268F9
:10559C000B92FF1AFFB201EBC70331F837200692CA
:1055AC009A780992DA780C92012D93F9052093F9E7
:1055BC0006A00A9201D8012C57D9BDF928300893BE
:1055CC000FFA8AF30793DBF8003058465B6998476B
:1055DC00B3B24FF000080E931AFA86F3C146474651
:1055EC000F930C9B9F428FD2079B0E9A3B4403FB5D
:1055FC000423002205920F9A1BB202EB070A08EE55
:10560C00103A0FFA8AFA4346099A0599914241D207
:10561C005A1CD2B25B070D9207D1069B06990B9AC6
:10562C0001339BB212F80190069319F0800F12D03F
:10563C00012DDBF80030BDF80C101AD1012C18D15B
:10564C000A9A9B691144059A11441E465246049BC2
:10565C0009B25846B047059E0136F3B24FEA4909E4
:10566C0005935FFA89F90D9BCEE70023CDE907334B
:10567C00A9E70598089A024402FB0511049ACDE9A2
:10568C000042DB6918EE102A1E4609B22B4658461A
:10569C00B047E0E7099B013798445FFA88F8FFB2FE
:1056AC009FE711B0BDEC028BBDE8F08F5A8D0B005B
:1056BC00F0B5026A85B004460B46002A34D10A299B
:1056CC0008D1438A0282427E03EBC203638201202B
:1056DC0005B0F0BD0D29FAD0E17E007E657E71B17A
:1056EC00B4F91060062111FB0061B4F90C60B142F1
:1056FC00C1BFB4F91210228201EBC5026282E28AA8
:10570C000192A28A0092CDE90205B4F91220B4F9F3
:10571C0010102046FFF75EFE237E228A03EB430324
:10572C0002EB43032382D2E70A2907D10023038229
:10573C00417E927A438A01FB0233C7E70D29C6D01A
:10574C00157AA942C3D3517A9942C0D351685D1BD3
:10575C00EDB201EBC505A87828B3E97819B3E17E61
:10576C00267E677E91B195F905100844B4F91010A6
:10577C0006FB0011B4F90C00814207DD00202082E9
:10578C00B4F91210927A02FB07126282E28A019239
:10579C00A28A0092CDE90267B4F91220B4F9101074
:1057AC002046FFF717FE2979227E238A01FB02335C
:1057BC00B8E7012938BF012101764176704770475F
:1057CC0010B510210446FEF764FC204610BD0EB443
:1057DC0003B503AB002153F8042B019301F045FFF3
:1057EC0002B05DF804EB03B07047000073B50446DB
:1057FC0008462279A36832B1A3B90B4902B0BDE8BF
:10580C00704001F0F7BE094A267B094D0949647BBB
:10581C00012E18BF2946CDE900140749FFF7D7FF21
:10582C0002B070BD054AEFE7C5920B00D08C0B009F
:10583C00C1920B00BD920B00DB920B00B4920B00DB
:10584C0010B5044B03600446C06A08B101F090FC2B
:10585C00204610BDB4970B0010B50446FFF7F0FFBF
:10586C0020465021FEF715FC204610BD002910B52E
:10587C004BDBB0F90C408C4247DD002A45DBB0F91C
:10588C000E40944241DD847E022C1FD0032C26D086
:10589C00012C04D10489D24314440A4621B2012BB1
:1058AC0023D0022B32D083BB002A13460489C06A52
:1058BC00B8BFD31DDB1013FB041102F00702012348
:1058CC009340425C22EA030242541EE00489013CEC
:1058DC00611A4489D243224409B212B2DFE74489E7
:1058EC00013C641A114622B2D9E7002A04891346F6
:1058FC00B8BFD31DDB1013FB0411C36A02F0070001
:10590C0001228240585C02435A5410BD002A1346AF
:10591C000489C06AB8BFD31DDB1013FB041102F05D
:10592C000702012303FA02F2435C5A40CCE7000061
:10593C0070B504461D460026FFF7E2FC114B2360B0
:10594C00666215B902F050FE0546FF2384F8333029
:10595C0084F836309DF9103084F837300A4BA36345
:10596C00012384F83C30059BA3644FF6FF72069B21
:10597C00A286C4E90A562664A4F84460E36420466F
:10598C0070BD00BFB4970B0000930B00F8B5044634
:10599C00806A0D4690B194F9301001F0B7FCA06A02
:1059AC00036800219B689847A06A036829469B6896
:1059BC009847A06ABDE8F84001F0AFBC94F93530C7
:1059CC00014698B202F08FFD606A20B12946BDE80D
:1059DC00F84001F02DBF0826802794F9330005EA22
:1059EC00070180B202F07FFD94F93400012180B2EE
:1059FC0002F079FD94F93400002180B202F073FDBD
:105A0C00013E4FEA5707E8D1F8BD38B50446806A25
:105A1C000D4680B1A16C01F06BFC002D204614BF2B
:105A2C00A721A621FFF7B2FFA06A88B1E16CBDE8FF
:105A3C00384001F05DBC606A18B104F1380101F026
:105A4C0089FE94F93600002180B202F04CFDE4E7A7
:105A5C0094F93600012180B202F045FD606A18B15C
:105A6C00BDE8384001F05CBE38BD2DE9F843044672
:105A7C00806A0D468F1840B394F9301001F046FC43
:105A8C00A06A036800219B6898470126AF42A06A70
:105A9C0017D01F2E0CD901F040FC94F93010A06ADD
:105AAC0001F034FCA06A036800219B68984701262A
:105ABC00A06A15F8011B036801369B689847F6B27B
:105ACC00E4E7BDE8F84301F028BC94F93530014611
:105ADC0098B202F008FDBD4222D0606A15F8019B15
:105AEC0018B1494601F0A4FEF5E708264FF08008EE
:105AFC0094F9330009EA080180B202F0F4FC94F93D
:105B0C003400012180B202F0EEFC94F93400002143
:105B1C0080B202F0E8FC013E4FEA5808E8D1DAE71F
:105B2C00BDE8F883B0F90A30DA1D48BF03F10E0264
:105B3C00B0F90830C06AD2105A43002102F0E8BE16
:105B4C002DE9FF411E46C36A9DF8288004460F4686
:105B5C001546C3B12046FFF7E5FFB4F90A00B4F9C6
:105B6C000810202821DC202301222038CDE9013225
:105B7C0000EBD07073237339009301EBD171894B17
:105B8C0040F34F0221E0B0F90A30D81D48BF03F1B1
:105B9C000E00B4F90830C010584301F0E1FAE0628D
:105BAC000028D7D104B0BDE8F0814038C0F3C03232
:105BBC0002FA80F240230120CDE901305223523900
:105BCC000093794B01EBD1715210204641F34F01F8
:105BDC00FFF7ACFBA06A84F83170002878D0002D58
:105BEC0074D1B4F90A30202B0CBF3C253D2584F828
:105BFC003050B8F1000F01D001F07EFBFEB194F9EA
:105C0C00370000281BDB012180B202F05BFC94F909
:105C1C003700012180B202F066FC012001F0E0FAAD
:105C2C0094F93700002180B202F05DFC0A2001F0EB
:105C3C00D7FA94F93700012180B202F054FCA06A23
:105C4C00002874D0A16C01F053FB04225749204664
:105C5C00FFF70BFF61890139C9B22046FFF796FEA9
:105C6C00534904222046FFF700FF94F93130012BF1
:105C7C000CBF102114212046FFF788FE04224D4949
:105C8C002046FFF7F2FEA3684B4A93425CD14B4986
:105C9C0004222046FFF7E9FED9212046FFF776FEC5
:105CAC0094F93130012B0CBF2221F1212046FFF752
:105CBC006DFE204642490622FFF7D7FEA06A002857
:105CCC0063D0E16C01F014FB01206BE76DB28EE741
:105CDC0094F93500012180B202F0F4FB94F93600FE
:105CEC00012180B202F0EEFB94F93600012180B262
:105CFC0002F0F9FB656A3DB1B8F1000F3FF47EAFDD
:105D0C00284601F0F9FC79E794F93300012180B2BF
:105D1C0002F0D8FB94F93400012180B202F0D2FBDE
:105D2C0094F93400294680B202F0DDFB66E7606A24
:105D3C0018B104F1380101F00DFD94F93600002181
:105D4C0080B202F0D0FB80E71E4A93420ED11E496E
:105D5C0003222046FFF789FE94F93130012B0CBF4A
:105D6C009F21CF212046FFF711FE95E7174A93425A
:105D7C0092D1174903222046FFF777FE94F9313070
:105D8C00012B0CBF1021AF21ECE794F93600012157
:105D9C0080B202F0A8FB606A002895D001F0C0FC2C
:105DAC0092E700BFCC950B000C930B0014980B00E2
:105DBC0018980B001C980B008000200026980B00F4
:105DCC0020980B00800040002A980B006000100007
:105DDC002D980B0070B5002ABDF810503DDBB0F9C2
:105DEC000A40944239DD0029BEBF5B181BB200216A
:105DFC00B0F90840CE18A642C4BF631A1BB2002BE0
:105E0C002BDDC06AD61014FB0611014402F007000A
:105E1C0001228240012DD2B216D0022D0BD0E5B951
:105E2C00D243D2B20B44994217D011F8010B104057
:105E3C0001F8010CF7E70B4499420ED011F8010B55
:105E4C00504001F8010CF7E70B44994205D011F8CA
:105E5C00010B104301F8010CF7E770BDF0B50029F8
:105E6C00BDF8145076DBB0F90860B14272DA002A42
:105E7C00BEBF9B181BB20022B0F90A40D718A7422C
:105E8C00C4BFA31A1BB2002B64DDC2F3C404C76ADF
:105E9C0016FB041612F00702DBB207EB060423D044
:105EAC00C2F10802D2B22D4993423CBF4FF0FF0C15
:105EBC00A2EB030E895C3CBF4CFA0EFC0CEA010110
:105ECC00012D07D0022D2ED04DB917F806C02CEAA3
:105EDC00010103E017F806C041EA0C01B9559342E1
:105EEC0038D3B0F908100C449A1AD2B2072A0ED93A
:105EFC00022D1DD113462178C9432170083BB0F9FE
:105F0C000810DBB2072B0C44F5D802F007020AB3D9
:105F1C00134B012D9B5C1AD0022D1CD0D5B92278C5
:105F2C0022EA030315E017F806C081EA0C01D5E755
:105F3C00291E18BF01214942C9B213462170083BE2
:105F4C00B0F90860DBB2072B3444F7D8DDE72278D0
:105F5C0013432370F0BD22785340FAE704980B00EA
:105F6C000C980B0070B41446827EBDF80C60022AAB
:105F7C000DD0032A18D0012A11D10289E44314440C
:105F8C0024B203960A46214670BCFFF767BF4289CC
:105F9C000589E44319441444691A24B209B20396DE
:105FAC00224670BCFFF716BF45891944691A09B21D
:105FBC00E7E730B41446827EBDF80850022A0DD0B3
:105FCC00032A18D0012A11D1E2180489A41A24B288
:105FDC0002950A46214630BCFFF7FCBE0289C94334
:105FEC001144E2184489A41A09B224B2029522463B
:105FFC0030BCFFF733BF4289C943114409B2E7E70C
:10600C002DE9F8430446806A002842D0A16C01F0C7
:10601C006FF9474905222046FFF727FD21890139F1
:10602C002046C9B2FFF7B2FCB4F90A30DE1D48BFF6
:10603C0003F10E06D4E90A052389F61013FB06F6C4
:10604C0015FA86F600283AD094F9301001F05EF972
:10605C00A06A036840219B6898470127B542A06A53
:10606C0024D01F2F0CD901F058F994F93010A06AE4
:10607C0001F04CF9A06A036840219B6898470127FE
:10608C00A06A15F8011B036801379B689847FFB29B
:10609C00E4E7606A18B104F1380101F05BFB94F994
:1060AC003600002180B202F01EFAB2E701F035F999
:1060BC00A06A78B3E16CBDE8F84301F019B994F922
:1060CC003500012180B202F00EFAAE42F0D0606AC7
:1060DC0015F8019B18B1494601F0AAFBF5E7082712
:1060EC004FF0800894F9330009EA080180B202F0FD
:1060FC00FAF994F93400012180B202F0F4F994F920
:10610C003400002180B202F0EEF9013F4FEA58084A
:10611C00E8D1DAE794F93600012180B202F0E3F914
:10612C00606A18B1BDE8F84301F0FABABDE8F8832B
:10613C0030980B0000210A22C0E90012704700239E
:10614C0010B50446C171837188B202F0E5F908B14B
:10615C000323A37100F098FD206010BD38B50C46E8
:10616C0005461146A0B202F0ADF921462846BDE81D
:10617C003840FFF7E4BF38B50446C07902F0CCF9DB
:10618C00A579003825F0080318BF0120C5F3400598
:10619C008542A3710AD000F077FDA379206083F0CB
:1061AC000203A371A079C0F3C00038BD00F06CFDF0
:1061BC002368C01AA3889842F4D3A37903F001038F
:1061CC00AB42EFD000F060FDA379206083F00103B7
:1061DC0043F00803E5E7807900F00900A0F108031B
:1061EC0058425841704791F85C3010B50446016034
:1061FC0013B1886D00F020FD204610BD10B503686A
:10620C0093F85C20044612B1986D00F01DFD2046F9
:10621C0010BDF8B51F469DF8243004460D461646B1
:10622C002BB1012380F85C30583000F0F5FC089B52
:10623C0023630023636306B1A66425B1294604F1E8
:10624C00380001F09EFB069B2365079BE069A4F8D0
:10625C004C70FF2BB8BFFF23A4F8543008B1FDF7E6
:10626C0016FFB4F85400FDF710FFE061F8BD000014
:10627C002DE9FF4104460025174698460E4601F0CD
:10628C00C9FE0D49E56104F1380001F04CFB9DF8A5
:10629C002830A564CDE90283FF220F23CDE900321B
:1062AC00204684F85C503B462A463146FFF7B1FF46
:1062BC00204604B0BDE8F081D08C0B0010B504462C
:1062CC00204601F003FE0028FAD0204601F0E8FB3E
:1062DC00C0B210BD2DE9F04705468846FFF7EEFF2A
:1062EC00EB691870EB6993F800A04FF001090AF004
:1062FC00F00A00274C462846FFF7E0FF2646EB69DC
:10630C00985500F07F0313FB09F31F440134030677
:10631C00A4B2BFB24FEAC919EDD4631EBAF1300F63
:10632C0088F800301ED12846FFF7C8FFEB691855D6
:10633C002846FFF7C3FFF41C0236B6B2EB69A4B2D1
:10634C0098550226B6B2BE420ED22846FFF7B6FFCB
:10635C00B5F85430A34284BFEB6918550134A4B28C
:10636C000136EFE70026EDE7B5F85430A3422CBF19
:10637C0020460020BDE8F0872DE9F34115461E4666
:10638C001A4607460023964602A802F07F0CBEF17F
:10639C007F0F03F10104034488BF4CF0800CBEF165
:1063AC007F0F4FEAD212E4B203F804CC1ED8C4F12A
:1063BC000403C4F10500E954224601A9284405EB65
:1063CC00030802F097FA721C22444146384601F049
:1063DC0052FB054600F058FC621C78623244A8B2AD
:1063EC00131A5842584102B0BDE8F0812346CAE75F
:1063FC000233F0B5054698B20023CE5C9CB256B180
:10640C00B5F854C0844503F1010704D9441C165453
:10641C003B46A0B2F1E799B2411A0A44210A02F8AC
:10642C00021C02F8013CF0BD38B5044601F070FCCA
:10643C00002814BF0125002502D1204601F0A0FD43
:10644C00284638BD2DE9F04788B00446DDF8408079
:10645C009DF850A0894617461E46FFF7E5FF0546F6
:10646C00002840F0CD80214601A8FFF7BCFEA16CAE
:10647C00002940F08880B4F84C20A16B2B462046B4
:10648C0001F0C8FB00287AD0012323849DF85430F6
:10649C00E269042B5B4B40F08180186899889B79EA
:1064AC00ADF80C108DF80E300290C2F805009DF876
:1064BC000E30BDF80C10A2F80910D3720C23B8F1F1
:1064CC00000F00F081809DF848009DF844204001A9
:1064DC0040EAC20040F00600C0B2BAF1000F01D190
:1064EC0000F0FD001FB1002E70D140F08000E26979
:1064FC00D054226DE169581C12120A549A1CE1699D
:10650C00206D88540333E26949462046FFF770FF3B
:10651C000346B8F1000F0BD0E26941462046FFF765
:10652C0067FFE269139903462046FFF761FF0346B4
:10653C0067B1E26939462046FFF75AFF03462EB190
:10654C00E26931462046FFF753FF0346053BE269FB
:10655C009BB210212046FFF70FFF00F095FBC4E91A
:10656C0009004FF47A76204601F0B0FC88BB00F0AD
:10657C008BFBA36AC01A236D73439842F3D9204650
:10658C0001F0FEFC35E002A800F054FFB4F84C20FA
:10659C002B4602A9204601F01DFC73E7D3F8070037
:1065AC00D3F80B10DB7B0DF1080CACE803008CF876
:1065BC00003002AB03CBC2F80500C2F809109CF8FE
:1065CC00003053730E237AE7022086E740F0C000B8
:1065DC008DE702A92046FFF77DFE0428CFD1E369A1
:1065EC00DE78002ECBD100F04FFB0125A06284F8A1
:1065FC002C6001A8FFF702FE284608B0BDE8F08722
:10660C000025F9E735980B007FB501230422CDE96D
:10661C0004320023CDE90233CDE900331A46FFF7EB
:10662C0011FF07B05DF804FB2DE9F74FDDF83C8056
:10663C009DF834509DF8389004468B4616461F46FC
:10664C00FFF7F2FE8246002851D0214601A8FFF741
:10665C00CAFDB4F85420E069002102F059F9052371
:10666C00E26959462046FFF7C3FE6B1E012B15D875
:10667C00218CE369013189B22184090A1954421C25
:10668C00E369218C92B20230995480B2B8F1000FB8
:10669C0004D0238C5A1C2284A8F8003000210B183B
:1066AC008F42E2699BB20AD9B4F854C09C4506D912
:1066BC0016F801C002F803C0013189B2EFE79DF86A
:1066CC00301000290CBF30213121B9F1000F01D05D
:1066DC0041F00801022D0ED141F00401053B9BB2A3
:1066EC002046FFF749FE824601A8FFF787FD50467A
:1066FC0003B0BDE8F08F012D08BF41F00201EDE7BA
:10670C001FB5089C0394002402949DF81C4001942E
:10671C009DF818400094FFF787FF04B010BD30B50A
:10672C0087B0044610460591049202F039F9002511
:10673C000346CDE90155DDE9042100952046FFF71C
:10674C00DFFF07B030BD73B504460E46FFF76CFE95
:10675C000546C8B1214601A8FFF745FDE369622251
:10676C001A70E36902225A70E369320A9A70E3697B
:10677C00DE70E1690422204601F07DF9051E01A8B6
:10678C0018BF0125FFF73AFD284602B070BD73B55E
:10679C0004460E46FFF748FE0546C8B1214601A83F
:1067AC00FFF721FDE36972221A70E36902225A7025
:1067BC00E369320A9A70E369DE70E16904222046CB
:1067CC0001F059F9051E01A818BF0125FFF716FDA8
:1067DC00284602B070BD2DE9F04F2DED028B87B02D
:1067EC0000AF0446FFF720FE8146F8B1214607F1C1
:1067FC001400FFF7F8FC00F047FA236D4FF47A729F
:10680C005343A26A821A9A42064603D8626A821AD3
:10681C00934221D294F82C307BB1204601F0B0FB8E
:10682C004FF0000907F11400FFF7E8FC48461C374D
:10683C00BD46BDEC028BBDE8F08FE269C021117042
:10684C00E2695370E1690222204601F014F9C4E9AF
:10685C000966012384F82C30204601F037FB002810
:10686C00E0D007F113012046FFF734FD83460028E2
:10687C00D8D0E369A662197801F0F002302A7FD1F2
:10688C00D4F830A0BAF1000FCCD097F813C06A46F8
:10689C0008EE102A03EB0C025178957805EB0125D4
:1068AC00ADB205F108026946D208A1EBC2029546C9
:1068BC000CF10302FA6003EB020E0DEB05026846C5
:1068CC00C7F808D07A60D7E901218A4206D00A4677
:1068DC001EF8018B02F8018BBA60F4E700224255D6
:1068EC0093F80080F96808F00608ABEB0C02033A49
:1068FC00B8F1020FA2EB0502294425D113F801E0EF
:10690C001944023A91F801B00CF1050129441944DB
:10691C000BEB0E2BD047E36940221A70E3691FFA88
:10692C008BFB83F80180E3694FEA1B229A70E369C1
:10693C0083F803B0E1690422204601F09CF86662FA
:10694C0018EE103A9D466DE7B8F1040F15D113F807
:10695C0001E01944023A91F801B00CF10501294407
:10696C0019440BEB0E2BD047E36950221A70E369E4
:10697C0002221FFA8BFB5A70D5E71944D047DFE788
:10698C00502A08D19A78D97801EB022189B2204695
:10699C00FFF7D9FE46E7402A12D1626B002A3FF47A
:1069AC0041AFBBF1040F7FF43DAF11F0060F7FF444
:1069BC0039AF9978D87800EB012080B2904731E755
:1069CC00602A08D19A78D97801EB022189B2204645
:1069DC00FFF7DDFE26E7702ADFD0902A3FF422AFC6
:1069EC00C02A0AD1D0221A70E36900225A70E169D8
:1069FC000222204601F03FF814E7D02A04BF0023FE
:106A0C0084F82C300EE7F7B504460F461646FFF710
:106A1C000BFD054610B3214601A8FFF7E4FB238CC0
:106A2C0001339BB2EBB12384238CE2691B0A5371B3
:106A3C00E369228C9A71E269072339462046FFF7F5
:106A4C00D7FCE3691E54043883B2E26982212046E4
:106A5C00FFF792FC054601A8FFF7D0FB284603B0D0
:106A6C00F0BD0123DFE70022FFF7CDBF13B50446CD
:106A7C00084659B1019101F093FF23680199DB6835
:106A8C000246204602B0BDE81040184702B010BDC7
:106A9C0000F0A6BB00F0F8B87047704770470000D4
:106AAC0003065ABF024B53F820000020704700BF6A
:106ABC0048980B0003065ABF024B53F820000020E5
:106ACC00704700BF489A0B0010B5064B0360044694
:106ADC00006D08B100F0A8F82046FEF7B1FE204684
:106AEC0010BD00BF509C0B0010B50446FFF7ECFF27
:106AFC0020467021FDF7CDFA204610BD30B585B08B
:106B0C0004460D4601F070FD104A1149CDE90121F2
:106B1C004FF0FF3280210346009220462022FEF7E0
:106B2C0007FF0C4B23600023C4E9143504F1580013
:106B3C00FFF700FB04F16000FFF7FCFA04F16800BA
:106B4C00FFF7F8FA204605B030BD00BF801A0600EA
:106B5C00A0860100509C0B0013B50446503000F089
:106B6C005BF8636DD90705D50222042104F15800A6
:106B7C00FFF7F4FA636D9A0705D50022032104F19F
:106B8C006000FFF7EBFA636D5B0705D50222114637
:106B9C0004F16800FFF7E2FA012300933C22022182
:106BAC002046FEF7CDFF02B010BD10B5436DD907DE
:106BBC00044602D55830FFF7DEFA636D9A0703D509
:106BCC0004F16000FFF7D7FA636D5B0705D504F19C
:106BDC006800BDE81040FFF7CEBA10BD436D024609
:106BEC0013F0010003D002F15800FFF7F4BA70471C
:106BFC00436D024613F0020003D002F16000FFF770
:106C0C00EABA7047436D024613F0040003D002F158
:106C1C006800FFF7E0BA704708B5024B1B681B6BA6
:106C2C00019308BD4802030008B5024B1B685B6B5F
:106C3C00019308BD4802030008B5024B1B689B6B0F
:106C4C00019308BD4802030008B5024B1B681B6C7E
:106C5C00019308BD4802030008B5024B1B685B6C2E
:106C6C00019308BD4802030008B5024B1B685B6822
:106C7C00019308BD1802030008B5024B1B68DB68C2
:106C8C00019308BD1802030008B5024B1B685B6931
:106C9C00019308BD1802030008B5024B1B685B6822
:106CAC00019308BD2C02030008B5024B1B689B68BE
:106CBC00019308BD2C02030008B5024B1B68DB686E
:106CCC00019308BD2C02030008B5024B1B681B691D
:106CDC00019308BD2C02030008B5024B1B685B69CD
:106CEC00019308BD2C02030008B5024B1B689B6A7C
:106CFC00019308BD2C02030008B5024B1B681B6BEB
:106D0C00019308BD2C02030008B5024B1B689B6F56
:106D1C00019308BD2C02030008B5024B1B681B68CD
:106D2C00019308BD2802030008B5024B1B68DB6801
:106D3C00019308BD2802030008B5024B1B689B6930
:106D4C00019308BD2802030008B5024B1B68DB69E0
:106D5C00019308BD2802030008B5024B1B681B6A8F
:106D6C00019308BD2802030008B5024B1B685B6A3F
:106D7C00019308BD2802030008B5024B1B689B6AEF
:106D8C00019308BD2802030008B5024B1B68DB6A9F
:106D9C00019308BD2802030008B5024B1B681B6B4E
:106DAC00019308BD2802030008B5024B1B685B6BFE
:106DBC00019308BD2802030008B5024B1B681B6C2D
:106DCC00019308BD2802030008B5024B1B685B69E0
:106DDC00019308BD6C02030008B5024B1B685B698C
:106DEC00019308BD6402030008B5024B1B681B6AC3
:106DFC00019308BD6402030008B5024B1B689B6A33
:106E0C00019308BD6402030008B5024B1B689B6824
:106E1C00019308BD6802030008B5024B1B68DB68D0
:106E2C00019308BD6802030008B5024B1B689B69FF
:106E3C00019308BD3802030008B5024B1B68DB69DF
:106E4C00019308BD3802030008B5024B1B681B6A8E
:106E5C00019308BD3802030008B5024B1B689B6AFE
:106E6C00019308BD3802030008B5024B1B681B6B6D
:106E7C00019308BD3802030008B5024B1B689B6BDD
:106E8C00019308BD3802030008B5024B1B681B6850
:106E9C00019308BD3002030008B5024B1B685B6907
:106EAC00019308BD3002030008B5024B1B68DB6977
:106EBC00019308BD3002030008B5024B1B681B6A26
:106ECC00019308BD3002030008B5024B1B685B6AD6
:106EDC00019308BD3002030008B5024B1B68DB6B45
:106EEC00019308BD3002030008B5024B1B681B6CF4
:106EFC00019308BD3002030008B5024B1B685B6CA4
:106F0C00019308BD3002030008B5024B1B68DB6817
:106F1C00019308BD3C02030008B5024B1B681B69BA
:106F2C00019308BD3C02030008B5024B1B685B696A
:106F3C00019308BD3C02030008B5024B1B689B691A
:106F4C00019308BD3C02030008B5024B1B68DB69CA
:106F5C00019308BD3C02030008B5024B1B681B6A79
:106F6C00019308BD3C02030008B5024B1B689B6AE9
:106F7C00019308BD3C02030008B5024B1B681B6C57
:106F8C00019308BD3C02030008B5024B1B681B684B
:106F9C00019308BD4C02030008B5024B1B685B68EB
:106FAC00019308BD4C02030008B5024B1B681B691A
:106FBC00019308BD4C02030008B5024B1B685B69CA
:106FCC00019308BD4C02030008B5024B1B689B697A
:106FDC00019308BD4C02030008B5024B1B68DB692A
:106FEC00019308BD4C02030008B5024B1B681B6AD9
:106FFC00019308BD4C02030008B5024B1B685B6B88
:10700C00019308BD6002030008B5024B1B681B6DA1
:10701C00019308BD6002030008B5024B1B685B6856
:10702C00019308BD2002030008B5024B1B685B6985
:10703C00019308BD2002030008B5024B1B68DB6AF4
:10704C00019308BD2002030008B5034B1B68D3F85D
:10705C008830019308BD00002002030008B5034BE3
:10706C001B68D3F89430019308BD00002002030084
:10707C0008B5024B1B689B68019308BD44020300D2
:10708C0008B5024B1B68DB69019308BD4402030081
:10709C0008B5024B1B68DB6B019308BD440203006F
:1070AC0008B5024B1B685B68019308BD40020300E6
:1070BC0008B5024B1B689B68019308BD4002030096
:1070CC0008B5024B1B68DB68019308BD4002030046
:1070DC0008B5024B1B681B69019308BD40020300F5
:1070EC0008B5024B1B685B69019308BD40020300A5
:1070FC0008B5024B1B689B69019308BD4002030055
:10710C0008B5024B1B68DB69019308BD4002030004
:10711C0008B5024B1B681B6A019308BD40020300B3
:10712C0008B5024B1B681B6B019308BD40020300A2
:10713C0008B5024B1B685B6B019308BD4002030052
:10714C0008B5024B1B681B6C019308BD4002030081
:10715C0008B5024B1B685B6C019308BD4002030031
:10716C0008B5024B1B681B68019308BD1C02030089
:10717C0008B5024B1B685B68019308BD1C02030039
:10718C0008B5024B1B689B68019308BD1C020300E9
:10719C0008B5024B1B68DB69019308BD1C02030098
:1071AC0008B5024B1B685B6A019308BD1C02030007
:1071BC0008B5024B1B68DB6B019308BD1C02030076
:1071CC0008B5024B1B681B6C019308BD1C02030025
:1071DC0008B5024B1B685B6C019308BD1C020300D5
:1071EC000021FFF721BF0000024800230360FFF7D6
:1071FC0033BD00BFC4E60320002240681146FFF7F0
:10720C0087BF002240681146FFF792BF40680022FA
:10721C00FFF786BF4068002281F00101FFF770BFC5
:10722C00002340681A461946FFF762BF00234068E6
:10723C001A461946FFF754BF002240681146FFF763
:10724C0047BF002240681146FFF732BF406800225A
:10725C000221FFF735BF002340681A46FFF720BF15
:10726C00024B03225A60024A1A607047C8E6032098
:10727C00B09C0B007047F8B5064615460C468F18A7
:10728C00BC4206D0336814F8011B9B683046984703
:10729C00F6E72846F8BD007C0022FFF75DBD007CB8
:1072AC000021FFF761BD007C0021FFF765BD007C6C
:1072BC000021FFF769BD007C0021FFF76DBD10B503
:1072CC0014210446FCF7E5FE204610BD10B54FF422
:1072DC007A73044608460021C4E90113034B23606A
:1072EC0020741146FFF768FD204610BDEC9C0B0086
:1072FC00007C0022FFF710BD0023007C1A461946C3
:10730C00FFF712BD007C0022FFF716BDC9B2FFF7D4
:10731C00F9BF007C0022FFF717BD0121FFF7F9BF71
:10732C00704710B518210446FCF7B3FE204610BD7B
:10733C00F0B5037D062B8DB00E4600F104074FF01F
:10734C00000412D000F1080515F8011D0A22304680
:10735C0000F06DF9AF42044419D0002CF4D02E216A
:10736C00304600F04BF90444EEE72F236A463946C9
:10737C000A208DF80040FFF72FFD684601F010FB46
:10738C0033680246DB686946304698470446204617
:10739C000DB0F0BD10B5054B0446112240F8043B6E
:1073AC00002101F0B5FA204610BD00BF149D0B0062
:1073BC000346074A10B543F8042B01F1100251F8AB
:1073CC00044B43F8044B9142F9D10A781A7010BD62
:1073DC00149D0B00037D042B04D14068003818BFAA
:1073EC0001207047062B07D143683BB983682BB942
:1073FC00C3681BB90069F1E7002070470120704792
:10740C0010B59DF8084044EA032343EA024242EADD
:10741C00016104234160037510BD000013B5044CD9
:10742C0004609DF810400094FFF7EAFF02B010BD15
:10743C00149D0B0007B5064B0360CB7800938B783B
:10744C004A780978FFF7DCFF03B05DF804FB00BF56
:10745C00149D0B00014B024A1A607047D0E60320C2
:10746C00209D0B00002340681A46FFF719BE4068A8
:10747C0000220221FFF724BE002240681146FFF7CC
:10748C0017BE002240681146FFF722BE0023406859
:10749C001A461946FFF724BE002340681A461946BF
:1074AC00FFF726BE40680021FFF74ABE4068002166
:1074BC00FFF74EBE4068002281F00101FFF720BEAD
:1074CC0040680022FFF72CBE002240681146FFF7EF
:1074DC002FBE002240681146FFF71ABE2DE9F0437B
:1074EC0095B014460D460746FFF754FF00211C22A9
:1074FC000DA8009101F00CFA40230C9320466B462A
:10750C000CAA0021FFF788FC044600284BD1024648
:10751C0001216868FFF7DCFD02218046224668687D
:10752C00FFF7D6FD009E81462146002E3BD0002958
:10753C0039D17368022B03D00A2B11D0F669F4E70A
:10754C00B8F1000FFAD0716906A8043107ADFFF746
:10755C0071FF0FCD3C1D0FC42B6823704146EDE726
:10756C00B9F1000FEAD07469102201A801F0D0F92A
:10757C0006238DF8143001AD04F108031834186893
:10758C0059682A4603C20833A3421546F7D101A90C
:10759C0006A807ADFFF70CFF0FCD3C1D0FC42B68E1
:1075AC0023704946CAE70098FFF72EFC384615B001
:1075BC00BDE8F083024B034A1A6000225A60704700
:1075CC00D4E603202C9D0B00F8B506460D468F180B
:1075DC000024BD420CD0336815F8011B9B68304663
:1075EC009847031E01DB1C44F3E7002C08BF1C4624
:1075FC002046F8BD08B5FFF739FA08BD03689B684B
:10760C00184738B50D210546FFF7F8FF0A21044647
:10761C002846FFF7F3FF204438BD38B50546FFF781
:10762C0025FA04462846FFF7ECFF204438BD30B558
:10763C008BB00023012A8DF8243098BF0A2209ACA4
:10764C000D46B1FBF2F101FB125303F0FF03092BC2
:10765C0094BF30333733DBB2AA4204F8013DEFD983
:10766C002146FFF703FA0BB030BD2DE9F04186B08F
:10767C0000AF05460E46381D142114463B60FFF73B
:10768C008FFD13280ED8391D2846FFF7EFF9044655
:10769C001EB12846FFF7B5FF044420461837BD46F7
:1076AC00BDE8F08100F1080323F00703E846ADEBD9
:1076BC00030D2246411C3B686846FFF771FD694685
:1076CC002846FFF7D3F90446C546E1E7014B0022F3
:1076DC009A607047DCE603200021FFF70DBC002107
:1076EC00FFF702BC10B5044608462170FFF7DCFB1F
:1076FC0000236360204610BD13B504460078FFF7E5
:10770C00EEFF58B9207801904FF6FF71FFF7BCFBE4
:10771C00019802B0BDE81040FFF7DEBF02B010BD0B
:10772C000078FFF7D9BF0000400830B5186000247E
:10773C0018688842E5B206D90134082C02D04008FA
:10774C001860F5E70725024B5B5D137030BD00BF79
:10775C00609D0B002DE9F04306468FB000780C4677
:10776C00FFF7BDFF00281BDB35781422002109A888
:10777C0001F0CEF80B23002209A92846ADF82430DD
:10778C00FFF7A2FB9DF82D3013B19DF82C5055B18D
:10779C000027B946B846012523795DB1C3B1002055
:1077AC000FB0BDE8F083DDF830809DF834909DF883
:1077BC003570F1E7002B35D1A368434508D18DF81E
:1077CC0020908DF82170BDF82020A3899A42E6D034
:1077DC000023A1688DF80F300A9804AB0DF10F024D
:1077EC00FFF7A2FF217985B989B9A36843450ED368
:1077FC008DF820908DF82170BDF82020A3899A4235
:10780C0005D1049B434502D1C9E70029F9D10023D6
:10781C000193637B00939DF80F20237B3078FFF757
:10782C005BFBBCE7CDE900552B462A460121F5E769
:10783C0008B50078FFF730FBC0B208BD10B50446A0
:10784C00FFF722FAE060236820465B69984700281E
:10785C0008DAFFF719FAE368C01AA3689842F2D362
:10786C004FF0FF3010BD2DE9F04107460C468E1845
:10787C000D46B542A5EB040807D03846FFF7DEFFEE
:10788C00031E02DB05F8013BF3E74046BDE8F0813F
:10789C0010B504460068FFF76BFC204610BD10B510
:1078AC000446006808B1FFF763FC0023C4E9013308
:1078BC00236010BD38B504460D4600680131FFF752
:1078CC005FFC10B1C4E90005012038BD10B5036898
:1078DC00044623B143688B4201D3012010BD2046DE
:1078EC00FFF7E8FF0028F9D0A368002BF5D1226838
:1078FC001370F2E737B50D46114601920446FFF7B7
:10790C00E5FF019A28B92046FFF7C9FF204603B0CE
:10791C0030BDA2602946206800F0ECFF2268A36805
:10792C000021D154F2E7002313B5C0E9003304461B
:10793C008360037341B10846019101F031F801995C
:10794C0002462046FFF7D6FF204602B010BD884203
:10795C0010B5044605D00B682BB18A681946FFF7A1
:10796C00C9FF204610BDFFF79AFFFAE710B50023B8
:10797C000446C0E9003383600373FFF7E8FF204639
:10798C0010BD13B5044659B10846019101F008F831
:10799C00019902462046FFF7ADFF204602B010BD0C
:1079AC00FFF77DFFF9E710B504468AB00023C4E960
:1079BC000033A3602373084601A900F093FC01A9CE
:1079CC002046FFF7DEFF20460AB010BD70B5054615
:1079DC000E4609B9002070BD6AB184681444214672
:1079EC00FFF774FF0028F5D02868AB6831461844BF
:1079FC0000F0CEFFAC600120EDE710B58A68096895
:107A0C000446FFF7E3FF10B92046FFF748FF204676
:107A1C0010BD08B582683AB921B10878B0FA80F087
:107A2C00400900E0012008BD006809B90078F5E7BD
:107A3C0000F0A4FFF2E70000054B02221A60054B90
:107A4C00054A9A600020C3E90000FFF7E5BA00BFC1
:107A5C00F8E60320ECE603200000FFFF13B50368F3
:107A6C008DF80710DC6B01224FF0FF330DF107018D
:107A7C00A04702B010BD10B40368DC6B4FF0FF33AD
:107A8C00A4465DF8044B604713B5134602688DF8A5
:107A9C000710D46B0DF107010122A04702B010BDF5
:107AAC0010B54369B3F88620B3F884309A42044683
:107ABC0008D06369B3F88420511CA3F884101344D4
:107ACC00187910BD03681B6998470028F1D14FF055
:107ADC00FF30F6E7704743691868C043C00F704722
:107AEC0070470000064B994210B500F10C0405D00C
:107AFC00084600F0DFFD002808BF0024204610BD1A
:107B0C00A09C0B0010B5AC210446FCF7C2FA204631
:107B1C0010BDAC21FCF7BDBA2DE9F0414FF00008C7
:107B2C0086B01C46C0F8048005460E4617464146F2
:107B3C00102202A800F0ECFE631C09D04FF47A73FB
:107B4C00B4FBF3F203FB1244CDE902285C4304942A
:107B5C00686910230093006802AB41F2050240F6FD
:107B6C00FF71FFF761F9002807DAFFF721FB0368C3
:107B7C006B60002006B0BDE8F081686900230068E6
:107B8C003A463146FFF770F9031EEEDB1846F1E773
:107B9C0038B584690A4B036005467CB16368013BC8
:107BAC0063605BB9236820469B689847A368013BD8
:107BBC00A3601BB923682046DB689847284638BD6C
:107BCC00A49D0B0010B50446FFF7E2FF20461C21D4
:107BDC00FCF75FFA204610BD30B587B0044601AD06
:107BEC006846FFF727FC0FCD04340FC42B682370B5
:107BFC0007B030BD70B54D69054B04468C3544F863
:107C0C00043B06460FCD0FC42B682370304670BD65
:107C1C00149D0B002DE9F0439846036893B00D4674
:107C2C000024DB6A06461746984728466B462246D0
:107C3C0021460094FFF7F0F80546002863D1009B1D
:107C4C00002B4BD05B69002B48D006A8FFF7A2FB9A
:107C5C00009B5C696378022B04D1211D06A8FFF7F9
:107C6C00BBFF26E00A2B24D11122294601A800F0E3
:107C7C004FFEA368002B38D004F108030DF1040C5F
:107C8C00183418685968624603C20833A3429446F4
:107C9C00F7D1062301A90CA88DF81430FFF788FB47
:107CAC000DF1340CBCE80F0007AC0FC4DCF800304D
:107CBC00237006A8FFF78EFB80B1336807ADD3F8AD
:107CCC002090124B0C930FCD0DAC0FC42B6823706E
:107CDC003A4643460CA93046C84705460098FFF77C
:107CEC0093F8284613B0BDE8F083E368002BC3D1AA
:107CFC004FF6FF70D4F81090FFF776F88145BBD1A2
:107D0C0004F11401AAE72546E8E700BF149D0B0017
:107D1C0038B543691A68002A054610DAB3F886208C
:107D2C00B3F884309A420AD103681B699847044619
:107D3C0028B92B682846DB6A9847204638BD0120B5
:107D4C00FCE710B54369B3F88620B3F884309A4247
:107D5C00044605D06369B3F884201344187910BD28
:107D6C0003681B6998470028F4D14FF0FF30F6E701
:107D7C00F8B543691746B3F88620B3F884309A42B5
:107D8C0005460E4616D06969B1F88430B1F88640C4
:107D9C00E41ABC4228BF3C46043322461944304600
:107DAC0000F0A8FD6A69B2F884302344A2F884304C
:107DBC002046F8BD03681B6998470028E3D14FF0B3
:107DCC00FF34F5E742690023A2F884304269A2F837
:107DDC00863070472DE9F0411F4603680C46DB6A7C
:107DEC008AB0054616469847237DD5F81480042B97
:107DFC000CBF02200A2006220121FFF73DF8C8F82B
:107E0C0000006B691B68002B08DA2B682846DB6ABC
:107E1C000024984720460AB0BDE8F0812846FFF7B9
:107E2C00D1FFB7B1002303A9F8B20393ADF810301A
:107E3C00FEF7CAFF0028E8D16869062300930068A2
:107E4C0003AB41F20B0240F6FF71FEF7EDFF002889
:107E5C00DBD11C22002103A800F05AFD237D042B4A
:107E6C001DD14FF407733046ADF80C30FEF7C4FF4C
:107E7C00ADF80E006068FEF7B7FF04906B691C222A
:107E8C00186803A9FEF7E0FF0028BED104340FCC1C
:107E9C006D698C350FC523682B700124BAE740F649
:107EAC001C233046ADF80C30FEF7A6FF05AEADF83E
:107EBC000E00231D04F1140718685968324603C2DA
:107ECC000833BB421646F7D1D8E7000030B54269FB
:107EDC00B2F886308BB004462BB1B2F884209A42AB
:107EEC0001D1FFF76FFF61690868002818DBB1F852
:107EFC0086507F2D14D804310823C5F18002294403
:107F0C00FEF7AAFF002813DD6369B3F886200AB9CF
:107F1C00A3F884206369B3F886201044A3F8860084
:107F2C006369B3F88600B3F88430C01A0BB030BD67
:107F3C00FFF73EF903680B2BF2D0FFF739F9036812
:107F4C000B2BEDD020230025CDE90235FFF730F9BE
:107F5C0003680193084B0949009302AA2B4632206F
:107F6C00FFF752F863691868FEF766FF63694FF014
:107F7C00FF321A60D4E700BF6F9D0B00689D0B00A9
:107F8C0010B5436904461868002801DBFEF754FF5E
:107F9C0063694FF0FF321A606069112200218C3046
:107FAC0000F0B6FC2046BDE81040FFF70BBF10B543
:107FBC00002304460160C0F884308830FFF7EAF9EA
:107FCC00204610BD73B500234FF47A72C0E901321C
:107FDC000E4A0361026043610446AC200191FCF738
:107FEC0052F8051E05F10C0608D00123C5E9013332
:107FFC00074B01992B603046FFF7D9FF2046C4E9A7
:10800C000565FFF7DFFE02B070BD00BFA49D0B003D
:10801C00889D0B0010B54FF0FF310446FFF7D2FFDF
:10802C00204610BD10B504460068002801DBFEF7A1
:10803C0003FF204610BD0C30FFF7F4BF024B1A684B
:10804C00024B1A60704700BFECE40320FCE60320EF
:10805C0070474174704708B5007CFEF785FF20EA35
:10806C00E07008BD08B5007CFEF756FF20EAE07012
:10807C0008BD08B5007CFEF75FFF40EAE07008BD64
:10808C0008B5007CFEF750FF40EAE07008BD007CAC
:10809C00FEF75ABF37B5457C04462DB1207C03B0A2
:1080AC00BDE83040FEF730BF007C0191FEF75CFF6D
:1080BC0000280199F2DC284603B030BD10B514211C
:1080CC000446FBF7E6FF204610BD000010B54FF448
:1080DC007A730446084611460022C4E90123044B76
:1080EC002360012320746374FEF746FF204610BD05
:1080FC000C9E0B00417470477047704708B5002107
:10810C00007CFEF761FF40EAE07008BD08B5012174
:10811C00007CFEF759FF40EAE07008BD08B5007C12
:10812C00FEF74AFF20EAE07008BD08B5007CFEF7B8
:10813C003BFF20EAE07008BD13B50446007C0191BA
:10814C00FEF73AFF0028019901DC607C20B1207C0D
:10815C00FEF742FF20EAE07002B010BD007CFEF793
:10816C0043BF10B514210446FBF793FF204610BD06
:10817C0010B54FF47A73044608460021C4E9011384
:10818C00044B23600123207463741146FEF7FCFE3C
:10819C00204610BD3C9E0B00007C0022FEF7FCBE6E
:1081AC0010B514220446002100F0B2FB204610BD8D
:1081BC0010B50F4C88B003A8FFF7F2FF2178BFF37E
:1081CC005B8F11F001010FD120460191FBF770FF7D
:1081DC00019948B103AA0748FFF7CAFF2046FBF7ED
:1081EC006CFF054800F078FB024808B010BD00BFDA
:1081FC0000E7032004E7032005810B000022406800
:10820C001146FEF765BF002240681146FEF780BF9D
:10821C00002240681146FEF78BBF40680022FEF733
:10822C007FBF4068002281F00101FEF769BF002387
:10823C0040681A461946FEF75BBF002340681A4691
:10824C001946FEF74DBF002240681146FEF730BFBD
:10825C00406800220221FEF733BF002340681A4613
:10826C00FEF71EBF024B04225A60024A1A60704786
:10827C0018E703206C9E0B0010B5044600F090FB31
:10828C00013823182046834206D90278197800F861
:10829C00011B03F80129F6E710BD70B50C46911EC1
:1082AC0022291DD8254630B9234430229D4210D2B4
:1082BC0005F8012BFAE7B0FBF2F602FB1600C1B28F
:1082CC00092894BF30315731C9B205F8011B30462B
:1082DC00E9E7002320462B70FFF7CEFF204670BD48
:1082EC000020FCE738B5031E0C4615460EDAB3F138
:1082FC00004F4FF02D0214BF5842184601230A704C
:10830C002A461944FFF7C9FF204638BD0123F9E777
:10831C00014B1860704700BFF0E4032008B50B4B0D
:10832C0043B1FFF745FF03681B699847002801DD3F
:10833C00AFF30080064B43B100F096F903681B695C
:10834C009847002801DDAFF3008008BD0000000055
:10835C000000000008B5FFF7E1FFFEF795FC014BAC
:10836C00186008BD28E703200548064A064908B5E9
:10837C00121A00F0BFFA054B054A1A6008BD00BF7F
:10838C0000F4032004F4032054A10B0000F4032098
:10839C001E1C279A07B5002300931A466FF077012D
:1083AC00FEF75CFE03B05DF804FB000007B54388E4
:1083BC000A2B08D0502B0BD1094B1B684BB103B0C7
:1083CC005DF804EB1847FFF7E5FF03B05DF804FB1D
:1083DC00002300931A466FF07701FEF73FFEF4E797
:1083EC0024E7032010B512480021FEF7F1FE114BD3
:1083FC001A68114B9A42114B0CBF012200221A70C1
:10840C0001D0FFF7B1FFFEF72FFC044600F088FA0D
:10841C000B4B13B12046AFF3008000210848FEF748
:10842C0037FEBDE8104007480021FEF70DBE00BF27
:10843C001D830B0000F403201E1C279A20E7032049
:10844C0000000000B9830B00232813B502D90020CB
:10845C0002B010BDA0F10B03022B1AD8174C2178D7
:10846C00BFF35B8F11F001010BD120460191FBF79B
:10847C001FFE019928B11248FFF734F92046FBF78B
:10848C001CFE0F4B1878FEF717FD0028DFD10120DA
:10849C00DEE7012809D800F0A7F80021007CFEF7E0
:1084AC0083FC80F00100C0B2D2E709380128EED875
:1084BC0000F0DAF8007CFEF74FFDF2E7B8E6032097
:1084CC00BCE60320232838B504460D460AD8FF29FC
:1084DC0008D0FFF7B9FF28B129462046BDE838403F
:1084EC00FEF7E2BB38BD38B504460D46FEF7E4FB9B
:1084FC00FF2810D0062804D84D2323FA00F0C30718
:10850C0009D42046FFF7A0FF28B129462046BDE834
:10851C003840FEF7D9BB38BD10B50446FEF7CCFB8E
:10852C00031FDBB2012B08D92046FFF78DFF20B1CA
:10853C002046BDE81040FEF7CFBB002010BD0D2833
:10854C0010B504469CBF0E34A4B22046FFF77CFF46
:10855C0050B103212046FEF79FFB032804D120468F
:10856C00BDE81040FEF7C8BB002010BD38B504466E
:10857C000D46FFF769FFF0B104212046FEF78CFB96
:10858C00042805D1A9B22046BDE83840FEF7ACBBA3
:10859C0002212046FEF780FB02280CD12046FEF774
:1085AC008BFB012801D0042805D129462046BDE8C3
:1085BC003840FEF7A9BB38BD7047000038B5202500
:1085CC00142304460360856005610649284600F0C3
:1085DC006FF804496060284600F06AF8E0602046B5
:1085EC0038BD00BFA09E0B0030B50E4D2978BFF3EF
:1085FC005B8F11F0010487B011D12846FBF758FDB1
:10860C0068B101A8FFF7DAFF01AA21460648FEF778
:10861C005DFE2846FBF751FD044800F05DF9024869
:10862C0007B030BD2CE7032030E70320C5850B00D5
:10863C007047000038B5044614252A46002100F086
:10864C0067F925804025074925812846258200F0B9
:10865C002FF804496060284600F02AF8E0602046B4
:10866C0038BD00BFA09E0B0030B50E4D2978BFF36E
:10867C005B8F11F0010487B011D12846FBF718FD70
:10868C0068B101A8FFF7D6FF01AA21460648FFF7FB
:10869C001DFD2846FBF711FD044800F01DF90248AA
:1086AC0007B030BD44E7032048E703203D860B00AC
:1086BC00FBF7EBBC014900F0F9B800BFBC9E0B0006
:1086CC007FB500241023CDE90234036815469E695A
:1086DC0012686B46CDE90044B0479DF8043003F0B6
:1086EC000603062B03BF009B2B600120204604B021
:1086FC0070BD0098904214BF012006207047000006
:10870C0010B5034B0360044600F0CDF8204610BDB5
:10871C00FC9E0B0010B50446FFF7F2FF2046082123
:10872C00FBF7B7FC204610BD2DE9F0411F46DDE9F3
:10873C000834DDF8188098450646154607D1079988
:10874C0000F0B4F818B165710020BDE8F08139462D
:10875C00304600F0ABF80028F6D00123C4F80080B6
:10876C002571A371F0E738B515461C4600F09EF84C
:10877C0020B10823E36006232560237138BD73B54F
:10878C0005460C4601921E4600F090F850B9032E97
:10879C0008D82368019A5B692946204602B0BDE8D7
:1087AC007040184702B070BD10B5034B036004460F
:1087BC00FFF7A6FF204610BD5C9F0B0010B50446CA
:1087CC00FFF7F2FF20460C21FBF763FC204610BD9F
:1087DC00F7B5089F974205460E4614460AD0A8687E
:1087EC0002680897156A31462246AC4603B0BDE8CC
:1087FC00F04060471946019300F058F8019B00289F
:10880C00EDD0062003B0F0BD2DE9F14F0D46194611
:10881C00DDE90A4BDDE90CA681461746984600F0C7
:10882C0045F890B1002D3460377109DB61198A4528
:10883C000CBF06210121B171002001B0BDE8F08F01
:10884C000235F9D10123B371F6E7544506D15946E7
:10885C00484600F02BF808B17771EDE7D9F808001D
:10886C000368CDE90CA6CDE90A4BDC693A464346D0
:10887C002946A44601B0BDE8F04F60472DE9F04110
:10888C0007460C4615461E46FFF76DFF48B9B868FB
:10889C0003689F692A4633462146BC46BDE8F04131
:1088AC006047BDE8F081704700207047814208B5F1
:1088BC000ED0406803782A2B0CD049680B782A2BF1
:1088CC0008BF013100F05AF8B0FA80F0400908BD39
:1088DC000120FCE70020FAE7002301461A4618465F
:1088EC0000F006B90A22002100F0F8B80A22002193
:1088FC0000F0F4B80A44914200F1FF3300D1704704
:10890C0010B511F8014B03F8014F9142F9D110BD8C
:10891C0002440346934200D1704703F8011BF9E768
:10892C0038B5104B1D68AB6B0446B3B91820FEF775
:10893C0017FC0246A86320B90B4B0C484221FEF7EA
:10894C003FFC0B490B4BC0E900130B4B83600B2313
:10895C00838100210120C2E90401AB6B00221C6160
:10896C005A6138BDF0E40320959F0B00AC9F0B00BF
:10897C000E33CDAB34126DE6ECDE050010F8012B96
:10898C0011F8013B012A28BF9A42F7D0D01A704740
:10899C00034611F8012B03F8012B002AF9D170477B
:1089AC00034613F8012B002AFBD1181A0138704723
:1089BC0010B50139034632B111F8014F03F8014BE0
:1089CC00013A002CF7D11A440021934200D110BD7A
:1089DC0003F8011BF9E70000012B2DE9F04701D04A
:1089EC00242B06D9FEF7E4FB162303600020BDE818
:1089FC00F087DFF8E4C00D462E4615F8014B14F84D
:108A0C000C7017F00807F7D12D2C32D12C780127D8
:108A1C00B51C002B5BD0102B09D1302C07D12C7836
:108A2C0004F0DF04582C4DD16C781023023507F17B
:108A3C00004808F1FF384FF0000CB8FBF3F966461C
:108A4C0003FB198AA4F1300EBEF1090F16D8744637
:108A5C00A34224DDBCF1000F1EDBB1451CD301D1B8
:108A6C00A24519DB06FB03464FF0010C15F8014B30
:108A7C00E8E72B2C04BF2C78B51CCAE7A4F1410EF7
:108A8C00BEF1190F01D8373CE2E7A4F1610EBEF13B
:108A9C00190F04D8573CDBE74FF0FF3CE6E7BCF17D
:108AAC00000F05DA22230360464642B930469EE7A2
:108ABC0007B17642002AF9D0BCF1000F00D0691E34
:108ACC001160F3E73024002BB1D10823AFE7302C31
:108ADC00A5D00A23ABE700BF06A00B0013460A463D
:108AEC00014602480068FFF777BF00BFF0E403209F
:108AFC002DE9F843DFF8B8800646D8F800001F4689
:108B0C000D46914600F056F8254B1C6834B9254C9F
:108B1C001C60254B13B11B68C4F8883063681F2B8D
:108B2C0007DDD8F8000000F047F84FF0FF30BDE843
:108B3C00F8834EB3D4F8880088B91C4B23B9D8F805
:108B4C00000000F038F8F0E74FF48470FEF708FBF3
:108B5C000028F4D00023C0E94033C4F888006368CF
:108B6C0040F8239001229A4000EB8301D0F80031A9
:108B7C001343C0F80031022EC1F8807002BFD0F848
:108B8C0004311343C0F804316368D8F800005A1C50
:108B9C000233626044F8235000F00EF80020C6E760
:108BAC00E8E703205CE70320000000006D710B0078
:108BBC0054E5032070477047704700001D400B00C0
:108BCC0059400B0081400B0085400B000000000059
:108BDC0043616C6C206F6E207075726520766972C3
:108BEC007475616C00636164652F63617073746F7D
:108BFC006E652F63616C656E6461726F75740025B0
:108C0C006900256C6900536C696465720052657368
:108C1C006574004D6574726F6E6F6D6520546F676F
:108C2C00676C6500676F00636164652F63617073C7
:108C3C00746F6E652F63616C656E646172696E0032
:108C4C005072616374696365730054696D65723A3F
:108C5C000070776D00647700617700676576395531
:108C6C006C5748757053387943424A327770445880
:108C7C00444E6D3654484D75306F53007672004734
:108C8C0072656174206A6F62206372656174696ECB
:108C9C006720656E6F7567682070726163746963B5
:108CAC0065206576656E74732074686973207765CA
:108CBC00656B2100596F75206E65656420746F209B
:108CCC006164642000206D6F726520707261637442
:108CDC00696365206576656E7473207468697320AA
:108CEC007765656B2E006C61622E74686577636CBA
:108CFC002E636F6D00626C6E6B696E6600766572CA
:108D0C0000312E312E3000682D62656174003435CF
:108D1C0000627566662D696E003130323400646510
:108D2C0076005061727469636C65204172676F6E76
:108D3C00006275696C64004A756C203133203230E6
:108D4C0032322031343A32393A35370000000000E3
:108D5C000000003E5B4F5B3E3E6B4F6B3E1C3E7C0F
:108D6C003E1C183C7E3C181C577D571C1C5E7F5EBD
:108D7C001C00183C1800FFE7C3E7FF00182418007C
:108D8C00FFE7DBE7FF30483A060E26297929264013
:108D9C007F050507407F05253F5A3CE73C5A7F3E3F
:108DAC001C1C08081C1C3E7F14227F22145F5F00D1
:108DBC005F5F06097F017F006689956A606060606D
:108DCC006094A2FFA29408047E040810207E201058
:108DDC0008082A1C08081C2A08081E101010100C61
:108DEC001E0C1E0C30383E3830060E3E0E060000AF
:108DFC0000000000005F00000007000700147F1453
:108E0C007F14242A7F2A12231308646236495620C1
:108E1C00500008070300001C2241000041221C00E6
:108E2C002A1C7F1C2A08083E0808008070300008A5
:108E3C0008080808000060600020100804023E5179
:108E4C0049453E00427F400072494949462141490B
:108E5C004D331814127F1027454545393C4A494972
:108E6C003141211109073649494936464949291EDC
:108E7C0000001400000040340000000814224114CB
:108E8C0014141414004122140802015909063E411D
:108E9C005D594E7C1211127C7F494949363E414145
:108EAC0041227F4141413E7F494949417F0909099E
:108EBC00013E414151737F0808087F00417F41000A
:108ECC002040413F017F081422417F404040407FB9
:108EDC00021C027F7F0408107F3E4141413E7F0906
:108EEC000909063E4151215E7F0919294626494947
:108EFC00493203017F01033F4040403F1F20402087
:108F0C001F3F4038403F6314081463030478040384
:108F1C006159494D43007F41414102040810200032
:108F2C004141417F040201020440404040400003A3
:108F3C0007080020545478407F284444383844446F
:108F4C004428384444287F385454541800087E0967
:108F5C000218A4A49C787F0804047800447D400087
:108F6C002040403D007F1028440000417F40007CA1
:108F7C00047804787C080404783844444438FC1899
:108F8C0024241818242418FC7C080404084854547D
:108F9C00542404043F44243C4040207C1C204020AA
:108FAC001C3C4030403C44281028444C9090907C11
:108FBC004464544C44000836410000007700000023
:108FCC004136080002010204023C2623263C1EA165
:108FDC00A161123A4040207A3854545559215555C4
:108FEC007941225454784221555478402054557973
:108FFC00400C1E5272123955555559395454545906
:10900C0039555454580000457C410002457D4200BE
:10901C0001457C407D1211127DF0282528F07C54EE
:10902C005545002054547C547C0A097F49324949E7
:10903C0049323A4444443A324A4848303A41412150
:10904C007A3A42402078009DA0A07D3D4242423DAC
:10905C003D4040403D3C24FF2424487E4943662B40
:10906C002FFC2F2BFF0929F620C0887E09032054E2
:10907C005479410000447D413048484A32384040E0
:10908C00227A007A0A0A727D0D19317D2629292F40
:10909C0028262929292630484D4020380808080858
:1090AC0008080808382F10C8ACBA2F102834FA005A
:1090BC00007B000008142A142222142A14085500DC
:1090CC00550055AA55AA55AAFF55FF55FF0000009B
:1090DC00FF00101010FF00141414FF001010FF00FC
:1090EC00FF1010F010F0141414FC001414F700FF0F
:1090FC000000FF00FF1414F404FC141417101F10CC
:10910C00101F101F1414141F00101010F00000007A
:10911C00001F101010101F10101010F01000000085
:10912C00FF101010101010101010FF10000000FF96
:10913C00140000FF00FF00001F10170000FC04F4D7
:10914C0014141710171414F404F40000FF00F7148F
:10915C00141414141414F700F71414141714101016
:10916C001F101F141414F4141010F010F000001F32
:10917C00101F0000001F14000000FC140000F01071
:10918C00F01010FF10FF141414FF141010101F0017
:10919C00000000F010FFFFFFFFFFF0F0F0F0F0FF19
:1091AC00FFFF0000000000FFFF0F0F0F0F0F3844F0
:1091BC00443844FC4A4A4A347E02020606027E02C5
:1091CC007E0263554941633844443C04407E201E72
:1091DC002006027E020299A5E7A5991C2A492A1CA1
:1091EC004C7201724C304A4D4D303048784830BC8E
:1091FC00625A463D3E494949007E0101017E2A2AB8
:10920C002A2A2A44445F444440514A444040444A38
:10921C0051400000FF0103E080FF000008086B6B69
:10922C00083612362436060F090F060000181800EF
:10923C0000001010003040FF0101001F01011E0052
:10924C00191D1712003C3C3C3C00000000000000C3
:10925C000000000000000000000000000000000002
:10926C00BD560B00D5750B00A5400B00C3500B0071
:10927C00C5500B00F7500B00D3500B00E5500B0002
:10928C0005500B00C3500B00EF520B00ED520B00BE
:10929C000F510B004D510B0087510B00CD510B00A2
:1092AC00E9510B006D520B0064656661756C74209E
:1092BC00004D5342004C5342003C5350495365748B
:1092CC0074696E67732064656661756C743E003CEE
:1092DC0053504953657474696E67732025732575F3
:1092EC00202573204D4F444525753E00000000009D
:1092FC0000000000F9570B00CB570B00CD570B00AB
:10930C0000000000000180000000000000000000D0
:10931C00038000000000000000000007C0000000F7
:10932C0000000000000007C000000000000000006A
:10933C00000FC00000000000000000001FE0000053
:10934C00000000000000001FE00000000000000012
:10935C0000003FE00000000000000000003FF000B3
:10936C0000000000000000007FF000000000000082
:10937C00001FF87FF0000000000000003FFE7FF0AF
:10938C00000000000000003FFF7FF0000000000024
:10939C0000001FFFFBE0000000000000000FFFF9C1
:1093AC00FFC00000000000000FFFF9FFF8000000F4
:1093BC0000000007FFF1FFFF00000000000003FCAD
:1093CC0073FFFF80000000000001FE3FFFFF8000E4
:1093DC000000000000FF1E0FFF0000000000000056
:1093EC007FFE1FFC000000000000003FFFFFF800A4
:1093FC000000000000000FDFFFE000000000000094
:10940C00001F19FFC0000000000000003F3CFF00DF
:10941C00000000000000007E7CF80000000000004E
:10942C0000007FFE7C0000000000000000FFFFFC3D
:10943C000000000000000000FFFFFE000000000024
:10944C00000000FFFFFE0000000000000001FFEF25
:10945C00FE0000000000000001FFCFFE0000000035
:10946C0000000003FF07FE0000000000000003FCEA
:10947C0007FE0000000000000003F003FE000000E7
:10948C0000000000018000FE000000000000000051
:10949C0000007E000000000000000000003E000004
:1094AC0000000000000000000C000000000000079D
:1094BC008000FC000003C0000000078001FC0000DD
:1094CC0003C0000000078001FC000003C000000086
:1094DC00078001E00000001E000000078001E00092
:1094EC0000001E007FE3F79FF9FDE7787BDFC0FFEC
:1094FC00F7FFBFFDFDFF787BDFC0FFF7FFBFFDFD72
:10950C00FF787BDFC0F0F787BC3DE1FF787BDE00A6
:10951C00F0F787BC3DE1F0787BDE0000F787803DFB
:10952C00E1E0787BDE007FF7879FFDE1E0787BDE72
:10953C0000FFF787BFFDE1E0787BDE00F0F787BC2A
:10954C003DE1E0787BDE00F0F787BC3DE1E0787B25
:10955C00DE00F0F787BC3DE1E0787BDE00FFF7FF33
:10956C00BFFDE1E07FFBDFC0FFF7FFBFFDE1E07F68
:10957C00FBDFC07CF3F39F3DE1E03E7BCFC00000FE
:10958C00000000000000000000FFFFFFFFFFFFFFD6
:10959C00FFFFFFC0FFFFFFFFFD68DB111A31C0FFAB
:1095AC00FFFFFFFD2B5AFB6AEFC0FFFFFFFFFD4BD8
:1095BC005B3B1A33C0FFFFFFFFFD6B5BDB6AFDC03B
:1095CC00000060000000000000000000000000002F
:1095DC0000E000000000000000000000000000019E
:1095EC00E00000000000000000000000000001F09E
:1095FC000000000000000000000000000003F0006C
:10960C0000000000000000000000000007F0000057
:10961C00000000000000000000000007F80000003F
:10962C00000000000000000000000FF80000000324
:10963C00C0007E000001E0007F0FF800000003C0B6
:10964C0000FE000001E000FFEFF800000003C00086
:10965C00FE000001E000FFFFF800000003C000F076
:10966C000000000F007FFE7FC0000003C000F00070
:10967C0000000F003FFE7FF83FF1FBCFFCFEF3BC78
:10968C003DEFE01FFE7FFF7FFBFFDFFEFEFFBC3DDB
:10969C00EFE01FC6FFFF7FFBFFDFFEFEFFBC3DEFD1
:1096AC00E00FE3C7FE787BC3DE1EF0FFBC3DEF008E
:1096BC0007FF87FC787BC3DE1EF0F83C3DEF000112
:1096CC00FFFFF0007BC3C01EF0F03C3DEF0001F348
:1096DC007FE03FFBC3CFFEF0F03C3DEF0003E33FE8
:1096EC00807FFBC3DFFEF0F03C3DEF0007E73C0062
:1096FC00787BC3DE1EF0F03C3DEF0007FFBE007828
:10970C007BC3DE1EF0F03C3DEF0007FFFE00787BD4
:10971C00C3DE1EF0F03C3DEF000FFFFE007FFBFFB1
:10972C00DFFEF0F03FFDEFE00FFFFF007FFBFFDF00
:10973C00FEF0F03FFDEFE00FF9FF003E79F9CF9E10
:10974C00F0F01F3DE7E01FF1FF00000000000000FB
:10975C0000000000001F80FF007FFFFFFFFFFFFFE6
:10976C00FFFFFFE01C007F007FFFFFFFFEB46D8852
:10977C008D18E000001F007FFFFFFFFE95AD7DB54B
:10978C0077E000000F007FFFFFFFFEA5AD9D8D1958
:10979C00E0000006007FFFFFFFFEB5ADEDB57EE0FB
:1097AC0000000000000000004D580B0065580B0035
:1097BC00BD560B00D5750B0079580B00C3500B0030
:1097CC00C5500B00F7500B00D3500B00E5500B00AD
:1097DC0005500B00C3500B00EF520B00175A0B0037
:1097EC00BF5F0B00715F0B0087510B00CD510B005D
:1097FC00E9510B006D520B000080C0E0F0F8FCFE4C
:10980C00000103070F1F3F7FAED580A8D300408D0A
:10981C002000A1C8DB40A4A62EAFDA02818FDA1299
:10982C0081DA02812200FF210000044D51545404BE
:10983C0000064D514973647003000000A56A0B00CB
:10984C00A56A0B00A56A0B00A56A0B00A56A0B00A4
:10985C00A56A0B00A56A0B00A56A0B00A56A0B0094
:10986C00A56A0B00A56A0B00A56A0B00A56A0B0084
:10987C00A56A0B00A56A0B00A56A0B00A56A0B0074
:10988C00A56A0B00A56A0B00A56A0B00A56A0B0064
:10989C00A56A0B00A56A0B00A56A0B00A56A0B0054
:1098AC00A56A0B00A56A0B00A56A0B00A56A0B0044
:1098BC00A56A0B00A56A0B00A56A0B00A56A0B0034
:1098CC00A56A0B00A56A0B00A56A0B00A56A0B0024
:1098DC00A56A0B00A56A0B00A56A0B00A56A0B0014
:1098EC00A56A0B00A56A0B00A56A0B00A56A0B0004
:1098FC00A56A0B00A56A0B00A56A0B00A56A0B00F4
:10990C00A56A0B00A56A0B00A56A0B00A56A0B00E3
:10991C00A56A0B00A56A0B00A56A0B00A56A0B00D3
:10992C00A56A0B00A56A0B00A56A0B00A56A0B00C3
:10993C00A56A0B00A56A0B00A56A0B00A56A0B00B3
:10994C00A56A0B00A56A0B00A56A0B00A56A0B00A3
:10995C00A56A0B00A56A0B00A56A0B00A56A0B0093
:10996C00A56A0B00A56A0B00A56A0B00A56A0B0083
:10997C00A56A0B00A56A0B00A56A0B00A56A0B0073
:10998C00A56A0B00A56A0B00A56A0B00A56A0B0063
:10999C00A56A0B00A56A0B00A56A0B00A56A0B0053
:1099AC00A56A0B00A56A0B00A56A0B00A56A0B0043
:1099BC00A56A0B00A56A0B00A56A0B00A56A0B0033
:1099CC00A56A0B00A56A0B00A56A0B00A56A0B0023
:1099DC00A56A0B00A56A0B00A56A0B00A56A0B0013
:1099EC00A56A0B00A56A0B00A56A0B00A56A0B0003
:1099FC00A56A0B00A56A0B00A56A0B00A56A0B00F3
:109A0C00A56A0B00A56A0B00A56A0B00A56A0B00E2
:109A1C00A56A0B00A56A0B00A56A0B00A56A0B00D2
:109A2C00A56A0B00A56A0B00A56A0B00A56A0B00C2
:109A3C00A56A0B00A56A0B00A56A0B0049420B0036
:109A4C00C5420B006D420B009D420B00A76A0B0038
:109A5C00A76A0B00A76A0B00A76A0B00A76A0B008A
:109A6C00A76A0B00A76A0B00A76A0B00A76A0B007A
:109A7C00A76A0B00A76A0B00A76A0B00A76A0B006A
:109A8C00A76A0B00A76A0B00A76A0B00A76A0B005A
:109A9C00A76A0B00A76A0B00A76A0B00A76A0B004A
:109AAC00A76A0B00A76A0B00A76A0B00A76A0B003A
:109ABC00A76A0B00A76A0B00A76A0B00A76A0B002A
:109ACC00A76A0B00A76A0B00A76A0B00A76A0B001A
